:100000000C942A000C9447000C9447000C94470071
:100010000C9447000C9447000C9447000C94470044
:100020000C9447000C9447000C9447000C94470034
:100030000C9447000C9447000C9447000C94470024
:100040000C9447000C9447000C9447000C94470014
:100050000C94470011241FBECFE5D8E0DEBFCDBF12
:1000600012E0A0E6B0E0E8EDF4E002C005900D92E9
:10007000A838B107D9F722E0A8E8B2E001C01D9284
:10008000A838B207E1F70E94DF000C946A020C94D2
:10009000000010BC87E489B98AB188618AB980B54B
:1000A000866880BD08955D9BFECF8CB98CEC9AE08C
:1000B0000197F1F700C0000008950E9453000895D1
:1000C0005F9BFECF8CB108950E9460000895CF938E
:1000D000DF93EC018881882331F021960E94530040
:1000E00089918111FBCFDF91CF9108950E94670024
:1000F000089585BB80E88BBB8CEC9AE00197F1F703
:1001000000C000001BBA8CEC9AE00197F1F700C028
:100110000000089588E30E9479008CEC9AE0019732
:10012000F1F700C0000081E00E9479008CEC9AE0B9
:100130000197F1F700C0000080E80E9479008CEC84
:100140009AE00197F1F700C000008FEF9BE601975E
:10015000F1F700C0000086E00E9479008CEC9AE084
:100160000197F1F700C000008CE00E9479008CEC50
:100170009AE00197F1F700C00000089585BB80EA7E
:100180008BBB8CEC9AE00197F1F700C0000080E295
:100190008BBB8CEC9AE00197F1F700C0000008954A
:1001A000CF93DF93EC018881882331F021960E9460
:1001B000BE0089918111FBCFDF91CF9108958FEF20
:1001C00081BB84BB87BB8ABB0E948A0080E690E02B
:1001D0000E94D00080EC0E94790082E692E00E94AA
:1001E000D0000E94490084E790E00E9476008DE0F4
:1001F0000E945D008AE00E945D0087E890E00E9416
:1002000076008DE00E945D008AE00E945D0085E935
:1002100090E00E9476008DE00E945D008AE00E94DE
:100220005D0082EB90E00E9476008DE00E945D0010
:100230008AE00E945D008AEC90E00E9476008DE0EA
:100240000E945D008AE00E945D0082EE90E00E94C4
:1002500076008DE00E945D008AE00E945D008AEFDA
:1002600090E00E9476008DE00E945D008CE091E0BD
:100270000E9476008DE00E945D008AE00E945D0091
:100280008EE191E00E9476008DE00E945D008AE0A0
:100290000E945D0082E391E00E9476008DE00E9462
:1002A0005D008AE00E945D00C1E00F2EF7E0FF2EA6
:1002B000F02D08E014E0D2E00E946400813379F56B
:1002C00088B38C2788BBC09B15C087E491E00E944F
:1002D000760080EC0E94790089E591E00E94D000D0
:1002E0002FEF8FEB91E2215080409040E1F700C06A
:1002F0000000E2CF83E691E00E94760080EC0E944D
:10030000790086E791E00E94D0002FEF8FEB91E219
:10031000215080409040E1F700C00000CDCF8233F3
:1003200079F588B38D2788BBC19B15C081E891E022
:100330000E94760080EC0E94790083E991E00E949F
:10034000D0002FEF8FEB91E2215080409040E1F7F9
:1003500000C00000B1CF8DE991E00E94760080ECF2
:100360000E94790080EB91E00E94D0002FEF8FEB8C
:1003700091E2215080409040E1F700C000009CCF06
:10038000833379F588B3812788BBC29B15C08BEB7B
:1003900091E00E94760080EC0E9479008DEC91E063
:1003A0000E94D0002FEF8FEB91E2215080409040CF
:1003B000E1F700C0000080CF87ED91E00E94760059
:1003C00080EC0E9479008AEE91E00E94D0002FEF2D
:1003D0008FEB91E2215080409040E1F700C0000097
:1003E0006BCF843379F588B3802788BBC39B15C056
:1003F00085EF91E00E94760080EC0E94790087E012
:1004000092E00E94D0002FEF8FEB91E221508040CC
:100410009040E1F700C000004FCF81E192E00E94E0
:10042000760080EC0E94790084E292E00E94D00085
:100430002FEF8FEB91E2215080409040E1F700C018
:1004400000003ACF853381F588B38F2588BB88B308
:100450008770A9F08FE292E00E94760080EC0E9403
:10046000790084E492E00E94D0002FEF8FEB91E2BC
:10047000215080409040E1F700C000001DCF8BE488
:1004800092E00E94760080EC0E9479008BE492E07A
:100490000E94D0002FEF8FEB91E2215080409040DE
:1004A000E1F700C0000008CF803241F480EC0E94E8
:1004B000790081E692E00E94D000FECE8DE692E0C7
:1004C0000E94760080EC0E94790089E792E00E9409
:0804D000D000F2CEF894FFCF3A
:1004D800574952454C45535320535749544348496B
:1004E8004E472000576972656C65737320537769AE
:1004F800746368696E670046696E616C204465665E
:10050800656E636500436F6E74726F6C204B65791E
:100518007320666F72204170706C69616E636573D9
:100528003A00313D4170706C69616E63652031201D
:100538004F4E206F72204F464600323D4170706C1E
:1005480069616E63652032204F4E206F72204F46DE
:100558004600333D4170706C69616E6365203320DD
:100568004F4E206F72204F464600343D4170706CEC
:1005780069616E63652034204F4E2000373D41701D
:10058800706C69616E63652034204F464600353DC6
:10059800416C6C204170706C69616E636573204FAB
:1005A8004E00363D416C6C204170706C69616E6321
:1005B8006573204F4646004170706C69616E6365D3
:1005C8002031206973204F4E0042554C4220312083
:1005D8004F4E004170706C69616E6365203120690F
:1005E80073204F46460042554C422031204F464624
:1005F800004170706C69616E6365203220697320F8
:100608004F4E0042554C422032204F4E00417070F0
:100618006C69616E63652032206973204F4646001D
:1006280042554C422032204F4646004170706C695A
:10063800616E63652033206973204F4E0042554C2C
:10064800422033204F4E004170706C69616E6365C3
:100658002033206973204F46460042554C422033D0
:10066800204F4646004170706C69616E63652034A6
:10067800206973204F4E00446F6F72204F70656E73
:10068800004170706C69616E636520342069732065
:100698004F464600446F6F7220436C6F736500418C
:1006A8006C6C204170706C69616E63652061726565
:1006B800204F4E00416C6C204F4E00416C6C204125
:1006C80070706C69616E636520617265204F464683
:1006D800002020202057454C434F4D4500496E7659
:1006E800616C6964204B657900726563656976653C
:0806F800645F6461746100009D
:00000001FF
